{
	"Solidity/HelloSolidity.sol": {
		"Loop": {
			"abi": [
				{
					"inputs": [],
					"name": "loop",
					"outputs": [],
					"stateMutability": "pure",
					"type": "function"
				}
			],
			"devdoc": {
				"kind": "dev",
				"methods": {},
				"version": 1
			},
			"evm": {
				"assembly": "    /* \"Solidity/HelloSolidity.sol\":3285:3605  contract Loop {... */\n  mstore(0x40, 0x80)\n  callvalue\n  dup1\n  iszero\n  tag_1\n  jumpi\n  0x00\n  dup1\n  revert\ntag_1:\n  pop\n  dataSize(sub_0)\n  dup1\n  dataOffset(sub_0)\n  0x00\n  codecopy\n  0x00\n  return\nstop\n\nsub_0: assembly {\n        /* \"Solidity/HelloSolidity.sol\":3285:3605  contract Loop {... */\n      mstore(0x40, 0x80)\n      callvalue\n      dup1\n      iszero\n      tag_1\n      jumpi\n      0x00\n      dup1\n      revert\n    tag_1:\n      pop\n      jumpi(tag_2, lt(calldatasize, 0x04))\n      shr(0xe0, calldataload(0x00))\n      dup1\n      0xa92100cb\n      eq\n      tag_3\n      jumpi\n    tag_2:\n      0x00\n      dup1\n      revert\n        /* \"Solidity/HelloSolidity.sol\":3306:3601  function loop() public pure{... */\n    tag_3:\n      tag_4\n      tag_5\n      jump\t// in\n    tag_4:\n      stop\n    tag_5:\n        /* \"Solidity/HelloSolidity.sol\":3348:3357  uint256 i */\n      0x00\n        /* \"Solidity/HelloSolidity.sol\":3344:3516  for(uint256 i =0; i < 10; i++) {... */\n    tag_7:\n        /* \"Solidity/HelloSolidity.sol\":3366:3368  10 */\n      0x0a\n        /* \"Solidity/HelloSolidity.sol\":3362:3363  i */\n      dup2\n        /* \"Solidity/HelloSolidity.sol\":3362:3368  i < 10 */\n      lt\n        /* \"Solidity/HelloSolidity.sol\":3344:3516  for(uint256 i =0; i < 10; i++) {... */\n      iszero\n      tag_8\n      jumpi\n        /* \"Solidity/HelloSolidity.sol\":3397:3398  3 */\n      0x03\n        /* \"Solidity/HelloSolidity.sol\":3393:3394  i */\n      dup2\n        /* \"Solidity/HelloSolidity.sol\":3393:3398  i ==3 */\n      sub\n        /* \"Solidity/HelloSolidity.sol\":3390:3443  if(i ==3) {... */\n      iszero\n        /* \"Solidity/HelloSolidity.sol\":3419:3427  continue */\n      tag_9\n        /* \"Solidity/HelloSolidity.sol\":3390:3443  if(i ==3) {... */\n      jumpi\n        /* \"Solidity/HelloSolidity.sol\":3463:3464  5 */\n      0x05\n        /* \"Solidity/HelloSolidity.sol\":3460:3461  i */\n      dup2\n        /* \"Solidity/HelloSolidity.sol\":3460:3464  i==5 */\n      sub\n        /* \"Solidity/HelloSolidity.sol\":3457:3505  if(i==5){... */\n      iszero\n        /* \"Solidity/HelloSolidity.sol\":3484:3489  break */\n      tag_8\n        /* \"Solidity/HelloSolidity.sol\":3457:3505  if(i==5){... */\n      jumpi\n        /* \"Solidity/HelloSolidity.sol\":3344:3516  for(uint256 i =0; i < 10; i++) {... */\n    tag_9:\n        /* \"Solidity/HelloSolidity.sol\":3370:3373  i++ */\n      dup1\n      dup1\n      0x01\n      add\n      swap2\n      pop\n      pop\n        /* \"Solidity/HelloSolidity.sol\":3344:3516  for(uint256 i =0; i < 10; i++) {... */\n      jump(tag_7)\n    tag_8:\n      pop\n        /* \"Solidity/HelloSolidity.sol\":3528:3537  uint256 j */\n      0x00\n        /* \"Solidity/HelloSolidity.sol\":3551:3594  while(j < 10){... */\n    tag_12:\n        /* \"Solidity/HelloSolidity.sol\":3561:3563  10 */\n      0x0a\n        /* \"Solidity/HelloSolidity.sol\":3557:3558  j */\n      dup2\n        /* \"Solidity/HelloSolidity.sol\":3557:3563  j < 10 */\n      lt\n        /* \"Solidity/HelloSolidity.sol\":3551:3594  while(j < 10){... */\n      iszero\n      tag_13\n      jumpi\n        /* \"Solidity/HelloSolidity.sol\":3579:3582  j++ */\n      dup1\n      dup1\n      tag_14\n      swap1\n      tag_15\n      jump\t// in\n    tag_14:\n      swap2\n      pop\n      pop\n        /* \"Solidity/HelloSolidity.sol\":3551:3594  while(j < 10){... */\n      jump(tag_12)\n    tag_13:\n        /* \"Solidity/HelloSolidity.sol\":3333:3601  {... */\n      pop\n        /* \"Solidity/HelloSolidity.sol\":3306:3601  function loop() public pure{... */\n      jump\t// out\n        /* \"#utility.yul\":7:187   */\n    tag_16:\n        /* \"#utility.yul\":55:132   */\n      0x4e487b7100000000000000000000000000000000000000000000000000000000\n        /* \"#utility.yul\":52:53   */\n      0x00\n        /* \"#utility.yul\":45:133   */\n      mstore\n        /* \"#utility.yul\":152:156   */\n      0x11\n        /* \"#utility.yul\":149:150   */\n      0x04\n        /* \"#utility.yul\":142:157   */\n      mstore\n        /* \"#utility.yul\":176:180   */\n      0x24\n        /* \"#utility.yul\":173:174   */\n      0x00\n        /* \"#utility.yul\":166:181   */\n      revert\n        /* \"#utility.yul\":193:270   */\n    tag_17:\n        /* \"#utility.yul\":230:237   */\n      0x00\n        /* \"#utility.yul\":259:264   */\n      dup2\n        /* \"#utility.yul\":248:264   */\n      swap1\n      pop\n        /* \"#utility.yul\":193:270   */\n      swap2\n      swap1\n      pop\n      jump\t// out\n        /* \"#utility.yul\":276:509   */\n    tag_15:\n        /* \"#utility.yul\":315:318   */\n      0x00\n        /* \"#utility.yul\":338:362   */\n      tag_22\n        /* \"#utility.yul\":356:361   */\n      dup3\n        /* \"#utility.yul\":338:362   */\n      tag_17\n      jump\t// in\n    tag_22:\n        /* \"#utility.yul\":329:362   */\n      swap2\n      pop\n        /* \"#utility.yul\":384:450   */\n      0xffffffffffffffffffffffffffffffffffffffffffffffffffffffffffffffff\n        /* \"#utility.yul\":377:382   */\n      dup3\n        /* \"#utility.yul\":374:451   */\n      sub\n        /* \"#utility.yul\":371:474   */\n      tag_23\n      jumpi\n        /* \"#utility.yul\":454:472   */\n      tag_24\n      tag_16\n      jump\t// in\n    tag_24:\n        /* \"#utility.yul\":371:474   */\n    tag_23:\n        /* \"#utility.yul\":501:502   */\n      0x01\n        /* \"#utility.yul\":494:499   */\n      dup3\n        /* \"#utility.yul\":490:503   */\n      add\n        /* \"#utility.yul\":483:503   */\n      swap1\n      pop\n        /* \"#utility.yul\":276:509   */\n      swap2\n      swap1\n      pop\n      jump\t// out\n\n    auxdata: 0xa26469706673582212205d0c1dcc8a5df2e11db446aa8ba0c6e470e1f541715f83c04a0c1b7345c0917964736f6c634300081a0033\n}\n",
				"bytecode": {
					"linkReferences": {},
					"object": "6080604052348015600e575f80fd5b506101258061001c5f395ff3fe6080604052348015600e575f80fd5b50600436106026575f3560e01c8063a92100cb14602a575b5f80fd5b60306032565b005b5f5b600a8110156059576003810315604d5760058103156059575b80806001019150506034565b505f5b600a8110156074578080606d9060ad565b915050605c565b50565b7f4e487b71000000000000000000000000000000000000000000000000000000005f52601160045260245ffd5b5f819050919050565b5f60b58260a4565b91507fffffffffffffffffffffffffffffffffffffffffffffffffffffffffffffffff820360e45760e36077565b5b60018201905091905056fea26469706673582212205d0c1dcc8a5df2e11db446aa8ba0c6e470e1f541715f83c04a0c1b7345c0917964736f6c634300081a0033",
					"opcodes": "PUSH1 0x80 PUSH1 0x40 MSTORE CALLVALUE DUP1 ISZERO PUSH1 0xE JUMPI PUSH0 DUP1 REVERT JUMPDEST POP PUSH2 0x125 DUP1 PUSH2 0x1C PUSH0 CODECOPY PUSH0 RETURN INVALID PUSH1 0x80 PUSH1 0x40 MSTORE CALLVALUE DUP1 ISZERO PUSH1 0xE JUMPI PUSH0 DUP1 REVERT JUMPDEST POP PUSH1 0x4 CALLDATASIZE LT PUSH1 0x26 JUMPI PUSH0 CALLDATALOAD PUSH1 0xE0 SHR DUP1 PUSH4 0xA92100CB EQ PUSH1 0x2A JUMPI JUMPDEST PUSH0 DUP1 REVERT JUMPDEST PUSH1 0x30 PUSH1 0x32 JUMP JUMPDEST STOP JUMPDEST PUSH0 JUMPDEST PUSH1 0xA DUP2 LT ISZERO PUSH1 0x59 JUMPI PUSH1 0x3 DUP2 SUB ISZERO PUSH1 0x4D JUMPI PUSH1 0x5 DUP2 SUB ISZERO PUSH1 0x59 JUMPI JUMPDEST DUP1 DUP1 PUSH1 0x1 ADD SWAP2 POP POP PUSH1 0x34 JUMP JUMPDEST POP PUSH0 JUMPDEST PUSH1 0xA DUP2 LT ISZERO PUSH1 0x74 JUMPI DUP1 DUP1 PUSH1 0x6D SWAP1 PUSH1 0xAD JUMP JUMPDEST SWAP2 POP POP PUSH1 0x5C JUMP JUMPDEST POP JUMP JUMPDEST PUSH32 0x4E487B7100000000000000000000000000000000000000000000000000000000 PUSH0 MSTORE PUSH1 0x11 PUSH1 0x4 MSTORE PUSH1 0x24 PUSH0 REVERT JUMPDEST PUSH0 DUP2 SWAP1 POP SWAP2 SWAP1 POP JUMP JUMPDEST PUSH0 PUSH1 0xB5 DUP3 PUSH1 0xA4 JUMP JUMPDEST SWAP2 POP PUSH32 0xFFFFFFFFFFFFFFFFFFFFFFFFFFFFFFFFFFFFFFFFFFFFFFFFFFFFFFFFFFFFFFFF DUP3 SUB PUSH1 0xE4 JUMPI PUSH1 0xE3 PUSH1 0x77 JUMP JUMPDEST JUMPDEST PUSH1 0x1 DUP3 ADD SWAP1 POP SWAP2 SWAP1 POP JUMP INVALID LOG2 PUSH5 0x6970667358 0x22 SLT KECCAK256 TSTORE 0xC SAR 0xCC DUP11 TSTORE CALLCODE 0xE1 SAR 0xB4 CHAINID 0xAA DUP12 LOG0 0xC6 0xE4 PUSH17 0xE1F541715F83C04A0C1B7345C091796473 PUSH16 0x6C634300081A00330000000000000000 "
				},
				"gasEstimates": {
					"creation": {
						"codeDepositCost": "58600",
						"executionCost": "109",
						"totalCost": "58709"
					},
					"external": {
						"loop()": "infinite"
					}
				},
				"methodIdentifiers": {
					"loop()": "a92100cb"
				}
			},
			"storageLayout": {
				"storage": [],
				"types": null
			},
			"userdoc": {
				"kind": "user",
				"methods": {},
				"version": 1
			}
		}
	}
}